:020000040800F2
:1000000000000220991F0008D1220008D722000812
:10001000DD220008E3220008E922000800000000B9
:10002000000000000000000000000000EF220008B7
:10003000FD220008000000000B230008192300081F
:10004000E91F0008E91F0008E91F0008E91F000870
:10005000E91F0008E91F0008E91F0008E91F000860
:10006000E91F0008E91F0008E91F0008E91F000850
:10007000E91F0008E91F0008E91F0008E91F000840
:10008000E91F0008E91F0008E91F0008E91F000830
:10009000E91F0008E91F0008E91F0008E91F000820
:1000A000E91F0008E91F0008E91F0008E91F000810
:1000B00025230008392300084D230008E91F000804
:1000C000E91F0008E91F0008E91F0008E91F0008F0
:1000D000E91F00086123000875230008E91F0008D4
:1000E000E91F0008E91F0008E91F0008E91F0008D0
:1000F000E91F0008E91F0008E91F0008E91F0008C0
:10010000E91F0008E91F0008E91F0008E91F0008AF
:10011000E91F0008E91F0008E91F0008E91F00089F
:10012000E91F0008E91F0008E91F0008E91F00088F
:10013000E91F0008E91F0008E91F0008E91F00087F
:10014000E91F0008E91F0008E91F0008E91F00086F
:10015000E91F0008E91F0008E91F0008E91F00085F
:10016000E91F0008E91F0008E91F0008E91F00084F
:10017000E91F0008E91F0008E91F0008E91F00083F
:10018000E91F0008E91F0008E91F0008E91F00082F
:10019000E91F000800000000E91F0008E91F00082F
:1001A000E91F0008E91F0008E91F0008E91F00080F
:1001B000892300089D230008E91F0008E91F0008A3
:1001C000E91F0008E91F0008E91F0008E91F0008EF
:0801D000E91F0008E91F000807
:1001E00010B5054C237833B9044B13B10448AFF371
:1001F00000800123237010BDB0000020000000002B
:1002000040A3000808B5034B1BB103490348AFF3F3
:10021000008008BD00000000B400002040A30008DA
:1002200081F0004102E000BF83F0004330B54FEAA7
:1002300041044FEA430594EA050F08BF90EA020F14
:100240001FBF54EA000C55EA020C7FEA645C7FEAA7
:10025000655C00F0E2804FEA5454D4EB5555B8BFCA
:100260006D420CDD2C4480EA020281EA030382EA3B
:10027000000083EA010180EA020281EA0303362DCD
:1002800088BF30BD11F0004F4FEA01314FF4801CA0
:100290004CEA113102D0404261EB410113F0004FB2
:1002A0004FEA03334CEA133302D0524263EB430369
:1002B00094EA050F00F0A780A4F10104D5F1200E07
:1002C0000DDB02FA0EFC22FA05F2801841F1000162
:1002D00003FA0EF2801843FA05F359410EE0A5F136
:1002E00020050EF1200E012A03FA0EFC28BF4CF067
:1002F000020C43FA05F3C01851EBE37101F000451D
:1003000007D54FF0000EDCF1000C7EEB00006EEB29
:100310000101B1F5801F1BD3B1F5001F0CD34908B3
:100320005FEA30004FEA3C0C04F101044FEA44520A
:1003300012F5800F80F09A80BCF1004F08BF5FEA91
:10034000500C50F1000041EB045141EA050130BD71
:100350005FEA4C0C404141EB0101013C28BFB1F583
:10036000801FE9D291F0000F04BF01460020B1FACE
:1003700081F308BF2033A3F10B03B3F120020CDAA1
:100380000C3208DD02F1140CC2F10C0201FA0CF07F
:1003900021FA02F10CE002F11402D8BFC2F1200CE4
:1003A00001FA02F120FA0CFCDCBF41EA0C0190409A
:1003B000E41AA2BF01EB0451294330BD6FEA0404E3
:1003C0001F3C1CDA0C340EDC04F11404C4F12002CE
:1003D00020FA04F001FA02F340EA030021FA04F3E0
:1003E00045EA030130BDC4F10C04C4F1200220FA37
:1003F00002F001FA04F340EA0300294630BD21FA75
:1004000004F0294630BD94F0000F83F4801306BF3A
:1004100081F480110134013D4EE77FEA645C18BF2E
:100420007FEA655C29D094EA050F08BF90EA020FC5
:1004300005D054EA000C04BF1946104630BD91EABD
:10044000030F1EBF0021002030BD5FEA545C05D1C0
:100450004000494128BF41F0004130BD14F58004FF
:100460003CBF01F5801130BD01F0004545F0FE4173
:1004700041F470014FF0000030BD7FEA645C1ABFA8
:10048000194610467FEA655C1CBF0B46024650EADF
:10049000013406BF52EA033591EA030F41F400210B
:1004A00030BD00BF90F0000F04BF0021704730B591
:1004B0004FF4806404F132044FF000054FF0000166
:1004C00050E700BF90F0000F04BF0021704730B527
:1004D0004FF4806404F1320410F0004548BF4042FC
:1004E0004FF000013EE700BF42004FEAE2014FEA51
:1004F00031014FEA02701FBF12F07F4393F07F4F2C
:1005000081F06051704732F07F4208BF704793F02E
:100510007F4F04BF41F40021704730B54FF4607441
:1005200001F0004521F000411CE700BF50EA010244
:1005300008BF704730B54FF000050AE050EA0102ED
:1005400008BF704730B511F0004502D5404261EB5D
:1005500041014FF4806404F132045FEA915C3FF49E
:10056000D8AE4FF003025FEADC0C18BF03325FEA3B
:10057000DC0C18BF033202EBDC02C2F1200300FAEC
:1005800003FC20FA02F001FA03FE40EA0E0021FA11
:1005900002F11444BDE600BF70B54FF0FF0C4CF4FF
:1005A000E06C1CEA11541DBF1CEA135594EA0C0FB1
:1005B00095EA0C0F00F0DEF82C4481EA030621EAEC
:1005C0004C5123EA4C5350EA013518BF52EA033527
:1005D00041F4801143F4801338D0A0FB02CE4FF0D9
:1005E0000005E1FB02E506F00042E0FB03E54FF009
:1005F0000006E1FB03569CF0000F18BF4EF0010E01
:10060000A4F1FF04B6F5007F64F5407404D25FEAFC
:100610004E0E6D4146EB060642EAC62141EA5551AF
:100620004FEAC52040EA5E504FEACE2EB4F1FD0CF1
:1006300088BFBCF5E06F1ED8BEF1004F08BF5FEA6F
:10064000500E50F1000041EB045170BD06F0004621
:1006500046EA010140EA020081EA0301B4EB5C04CE
:10066000C2BFD4EB0C0541EA045170BD41F48011C6
:100670004FF0000E013C00F3AB8014F1360FDEBFEB
:10068000002001F0004170BDC4F10004203C35DAC7
:100690000C341BDC04F11404C4F1200500FA05F34A
:1006A00020FA04F001FA05F240EA020001F00042EB
:1006B00021F0004110EBD37021FA04F642EB060161
:1006C0005EEA430E08BF20EAD37070BDC4F10C048B
:1006D000C4F1200500FA04F320FA05F001FA04F24F
:1006E00040EA020001F0004110EBD37041F100013B
:1006F0005EEA430E08BF20EAD37070BDC4F1200546
:1007000000FA05F24EEA020E20FA04F301FA05F2AD
:1007100043EA020321FA04F001F0004121FA04F255
:1007200020EA020000EBD3705EEA430E08BF20EA25
:10073000D37070BD94F0000F0FD101F0004640005F
:1007400041EB010111F4801F08BF013CF7D041EAE1
:10075000060195F0000F18BF704703F000465200E5
:1007600043EB030313F4801F08BF013DF7D043EAB6
:100770000603704794EA0C0F0CEA135518BF95EA6C
:100780000C0F0CD050EA410618BF52EA4306D1D1F3
:1007900081EA030101F000414FF0000070BD50EA12
:1007A000410606BF1046194652EA430619D094EA9C
:1007B0000C0F02D150EA013613D195EA0C0F05D186
:1007C00052EA03361CBF104619460AD181EA0301DA
:1007D00001F0004141F0FE4141F470014FF0000092
:1007E00070BD41F0FE4141F4780170BD70B54FF02D
:1007F000FF0C4CF4E06C1CEA11541DBF1CEA1355AD
:1008000094EA0C0F95EA0C0F00F0A7F8A4EB05048E
:1008100081EA030E52EA03354FEA013100F0888085
:100820004FEA03334FF0805545EA131343EA12634E
:100830004FEA022245EA111545EA10654FEA002603
:100840000EF000419D4208BF964244F1FD0404F5BC
:10085000407402D25B084FEA3202B61A65EB030518
:100860005B084FEA32024FF480104FF4002CB6EBD5
:10087000020E75EB030E22BFB61A754640EA0C0055
:100880005B084FEA3202B6EB020E75EB030E22BF95
:10089000B61A754640EA5C005B084FEA3202B6EBD6
:1008A000020E75EB030E22BFB61A754640EA9C0095
:1008B0005B084FEA3202B6EB020E75EB030E22BF65
:1008C000B61A754640EADC0055EA060E18D04FEA23
:1008D000051545EA16754FEA06164FEAC30343EAC3
:1008E00052734FEAC2025FEA1C1CC0D111F4801F90
:1008F0000BD141EA00014FF000004FF0004CB6E789
:1009000011F4801F04BF01430020B4F1FD0C88BF27
:10091000BCF5E06F3FF6AFAEB5EB030C04BFB6EB32
:10092000020C5FEA500C50F1000041EB045170BD25
:100930000EF0004E4EEA113114EB5C04C2BFD4EB52
:100940000C0541EA045170BD41F480114FF0000ED6
:10095000013C90E645EA060E8DE60CEA135594EA52
:100960000C0F08BF95EA0C0F3FF43BAF94EA0C0F55
:100970000AD150EA01347FF434AF95EA0C0F7FF4CA
:1009800025AF104619462CE795EA0C0F06D152EA1E
:1009900003353FF4FDAE1046194622E750EA410602
:1009A00018BF52EA43067FF4C5AE50EA41047FF413
:1009B0000DAF52EA43057FF4EBAE12E74FF0FF3C78
:1009C00006E000BF4FF0010C02E000BF4FF0010C49
:1009D0004DF804CD4FEA410C7FEA6C5C4FEA430CC2
:1009E00018BF7FEA6C5C1BD001B050EA410C0CBF11
:1009F00052EA430C91EA030F02BF90EA020F002073
:100A0000704710F1000F91EA030F58BF994208BFD9
:100A100090422CBFD8176FEAE37040F00100704796
:100A20004FEA410C7FEA6C5C02D150EA013C07D1ED
:100A30004FEA430C7FEA6C5CD6D152EA033CD3D038
:100A40005DF8040B704700BF8446104662468C4632
:100A50001946634600E000BF01B5FFF7B7FF002865
:100A600048BF10F1000F01BD4DF808EDFFF7F4FF8E
:100A70000CBF012000205DF808FB00BF4DF808ED19
:100A8000FFF7EAFF34BF012000205DF808FB00BF3C
:100A90004DF808EDFFF7E0FF94BF012000205DF85E
:100AA00008FB00BF4DF808EDFFF7CEFF94BF012013
:100AB00000205DF808FB00BF4DF808EDFFF7C4FF0C
:100AC00034BF012000205DF808FB00BF4FEA41025F
:100AD00012F5001215D211D56FF47873B3EB625290
:100AE00012D94FEAC12343F0004343EA505311F0B7
:100AF000004F23FA02F018BF404270474FF0000049
:100B0000704750EA013005D111F0004008BF6FF086
:100B1000004070474FF00000704700BF4A0011D2FC
:100B200012F5001211D20DD56FF47873B3EB625247
:100B30000ED44FEAC12343F0004343EA505323FA53
:100B400002F070474FF00000704750EA013002D1C8
:100B50004FF0FF3070474FF00000704753B94AB96B
:100B6000002908BF00281CBF4FF0FF314FF0FF30B5
:100B700000F06AB9ADF1080C6DE904CE00F006F89A
:100B8000DDF804E0DDE9022304B070472DE9F04709
:100B9000089D0C46002B4ED194468C458646B2FAF1
:100BA00082F262D94AB1C2F12003914020FA03F3E4
:100BB0000CFA02FC194300FA02FE4FEA1C471FFA26
:100BC0008CF6B1FBF7F44FEA1E4307FB141143EA1E
:100BD000014304FB06F199420AD91CEB030304F11B
:100BE000FF3080F01281994240F20F81023C634451
:100BF000591A1FFA8EF3B1FBF7F007FB101143EA05
:100C0000014300FB06F69E420AD91CEB030300F1E8
:100C1000FF3180F0FC809E4240F2F980634402384C
:100C20009B1B40EA044000211DB1D3400022C5E9CE
:100C30000032BDE8F0878B4205D90DB1C5E900014E
:100C400000210846F5E7B3FA83F1002946D1A34213
:100C500002D39042C0F0F080861A64EB03030120B7
:100C6000002DE6D0C5E90063E3E7002A40F090805C
:100C7000A1EB0C044FEA1C481FFA8CF70121B4FBCE
:100C8000F8F64FEA1E4308FB164443EA044307FB09
:100C900006F0984208D91CEB030306F1FF3402D298
:100CA000984200F2CD8026461C1A1FFA8EF3B4FB40
:100CB000F8F008FB104443EA044300FB07F79F42A7
:100CC00008D91CEB030300F1FF3402D29F4200F26B
:100CD000B0802046DB1B40EA0640A5E7C1F12006B4
:100CE0008B4022FA06F71F4320FA06FC04FA01F3B0
:100CF00043EA0C03F44000FA01F8380C4FEA1349B8
:100D0000B4FBF0FE1FFA87FC00FB1E4449EA0444D2
:100D10000EFB0CF9A14502FA01F20AD93C190EF1B9
:100D2000FF3A80F08480A14540F28180AEF1020E4E
:100D30003C44A4EB09041FFA83F9B4FBF0F300FB75
:100D4000134449EA044403FB0CFCA44507D93C19AD
:100D500003F1FF3067D2A44565D9023B3C4443EA26
:100D60000E40A0FB0293A4EB0C049C42CE469C4692
:100D700051D34ED055B1B8EB0E0364EB0C0404FA1A
:100D800006F6CB401E43CC40C5E90064002150E785
:100D9000C2F1200320FA03F10CFA02FC24FA03F357
:100DA00094400C434FEA1C4800FA02FE1FFA8CF7ED
:100DB000B3FBF8F008FB1031230C43EA014300FBBE
:100DC00007F1994208D91CEB030300F1FF362CD23E
:100DD00099422AD9023863445B1AA4B2B3FBF8F1F2
:100DE00008FB113344EA034401FB07F3A34208D98B
:100DF0001CEB040401F1FF3613D2A34211D90239CE
:100E00006444E41A41EA004139E70446F0E6084642
:100E100006E7C845AED2B9EB020E63EB070C01380A
:100E2000A8E73146EDE7034699E73046D4E7D646D2
:100E30007FE7634402384DE70646234608460FE73E
:100E4000023E634430E700BF704700BF034613F81B
:100E5000012B002AFBD1181A01387047000000004E
:100E600001F0FF01102A2BDB10F0070F08D010F85B
:100E7000013B013A8B422DD010F0070F42B3F6D15F
:100E8000F0B441EA012141EA014122F007047FF078
:100E900000070023F0E80256083C85EA010586EACF
:100EA000010685FA47F5A3FA87F586FA47F6A5FA0B
:100EB00087F68EB9EED1F0BC01F0FF0102F0070217
:100EC00032B110F8013B013A83EA010313B1F8D1C2
:100ED0000020704701387047002D06BF35460338A3
:100EE000073815F0010F07D1013015F4807F02BFDC
:100EF000013015F4C03F0130F0BC0138704700BF2D
:100F000080B584B000AFF860B9607A603B607B6800
:100F10009AB2FB681A80BB699AB2FB685A803B6A36
:100F20009AB2FB689A80BB6A9AB2FB68DA803B6B24
:100F30009AB2FB681A81FB68BA68DA60FB683A68A3
:100F40001A61FB68FA695A61FB687A6A9A61FB6800
:100F5000FA6ADA61FB6897F8342083F82020FB688E
:100F6000002283F82120FB680A4A223311464FF4FD
:100F70002072184608F036FE97F8403097F83C206B
:100F800097F83810F86800F01BFEFB681846103719
:100F9000BD4680BD58A3000880B594B000AF07F1EE
:100FA000180338220021184608F09AFD3B1D002244
:100FB0001A605A609A60DA601A61002003F044FCFB
:100FC0000223BB614FF480737B624023BB62022328
:100FD0007B630223BB630423FB6355233B6402232F
:100FE0007B640223BB640223FB6407F118031846E9
:100FF00003F02CFF0346002B14BF01230023DBB2B8
:10100000002B01D000F09EFB0F237B600323BB600D
:101010000023FB6000233B6100237B613B1D042117
:10102000184604F02BFA0346002B14BF01230023BB
:10103000DBB2002B01D000F085FB00BF5037BD466E
:1010400080BD000080B582B000AF7860254B1B7872
:10105000002B03D0234B1B78302B08D122494FF0B3
:1010600000024FF00003C1E9002300F003FD1D4B17
:101070001B78552B08D11C494FF000024FF000039C
:10108000C1E9002300F0D6FC164B1B78442B08D195
:1010900015494FF000024FF00003C1E9002300F0B2
:1010A000D9FC104B1B78522B07D10F494FF000028F
:1010B0000E4BC1E9002300F0BDFC0A4B1B784C2B02
:1010C00007D109494FF00002094BC1E9002300F0A4
:1010D000B1FC01220349074806F068FB00BF08374E
:1010E000BD4680BD700100203001002000003EC0E0
:1010F00000003E406C02002080B586B004AF7860EE
:101100007B681B68934A934240F01F810A23029335
:1011100006230193904B009301233D22A0218F4889
:1011200002F0CAFA8C4BDB781B021AB28A4B9B780E
:101130001BB213431AB28A4B1A80894BB3F90030A1
:101140001846FFF7BFF94FF00002864BFFF74EFB42
:1011500002460B46104619464FF00002824BFFF73D
:101160001BFA02460B468149C1E90023804B1B68EC
:10117000082B18DC7F4BD3E900017C4BD3E900231B
:10118000FFF754F802460B467A49C1E90023774B32
:10119000D3E900237849C1E90023754B1B6801336B
:1011A000734A1360D1E0724B1B68082B40F3CD806B
:1011B000704BD3E900014FF00002704BFFF716FBB4
:1011C00002460B466949C1E900236D4BD3E9000192
:1011D000664BD3E90023FFF727F802460B4669491F
:1011E000C1E90023614BD3E90001634BD3E900233C
:1011F000FFF71AF802460B466349C1E90023634B27
:10120000D3E900015F4BD3E90023FFF7C5F902469C
:101210000B465F49C1E900235A4BD3E900015D4BFE
:10122000D3E90023FFF7B8F902460B465A49C1E952
:1012300000235A4BD3E90001574BD3E90023FFF7B2
:10124000ABF902460B4610461946554BD3E900232D
:10125000FEF7ECFF02460B465149C1E90023514B12
:10126000D3E90001484BD3E90023FFF795F9024683
:101270000B46104619464C4BD3E90023FFF7B6FA4C
:1012800002460B464949C1E90023454BD3E9000119
:101290004FF00002464BFFF70FFC0346002B11D026
:1012A0003F4BD3E900014FF00002424BFFF7E6FB52
:1012B0000346002B06D03A494FF000024FF00003DE
:1012C000C1E90023364BD3E900014FF000023A4B4D
:1012D000FFF7F2FB0346002B06D031494FF0000226
:1012E000354BC1E9002310E02D4BD3E900014FF04D
:1012F0000002324BFFF7C2FB0346002B05D0284902
:101300004FF000022D4BC1E90023214BD3E900012E
:10131000234BD3E90023FEF789FF02460B46104614
:101320001946224BD3E90023FEF780FF02460B4605
:101330002349C1E900230E4B00221A600D494FF0EA
:1013400000024FF00003C1E9002300BF0837BD468B
:1013500080BD00BF00080040D0000020BC04002079
:10136000CC0000200000E04000806640F00000203B
:1013700000010020F8000020280100200000224089
:10138000300100203801002050010020180000200A
:1013900040010020300000206801002020000020D3
:1013A00048010020280000203800002058010020BB
:1013B0000000F0BF0000F03F00001C4000001CC017
:1013C000600100200000000090B5ADF5397D0CAF44
:1013D00008F0FCF9FFF7E0FD00F008FE00F0C0FEA9
:1013E00000F0F8FF01F042F801F08CF801F0EEF99E
:1013F00001F046FA01F09CFA01F0E8FA01F014FC61
:1014000007F1080000230A93492309933C2308931A
:10141000082307934FF400730693AF4B05934023C3
:101420000493AE4B039380230293AB4B0193402371
:101430000093A94B2022A949FFF762FD042008F080
:1014400057FA03461C464FF4E132A549204600F006
:101450005DFDA44B1C6007F10803A349184600F08A
:1014600030FDA04B1B68A149184600F065FD0A201D
:1014700008F01CFA07F52C73A3F52B7300221A70E1
:10148000002387F8AF3201224FF400714FF09040F3
:1014900001F0D4FF01224FF480614FF0904001F041
:1014A000CDFF01224FF400614FF0904001F0C6FFE4
:1014B00000218F4804F0AEFC01224021874801F052
:1014C000BDFF01224FF48041834801F0B7FF1E2386
:1014D0000B228849884806F02BF800224FF48041FF
:1014E0007D4801F0ABFF854804F0C4FB3B1D0122A1
:1014F0001946834806F05AF90A230B227D497E4893
:1015000006F016F87F4BD3E9002310461946FFF783
:1015100005FB034687F8AF327B4BD3E900014FF060
:1015200000024FF00003FFF79FFA0346002B14D090
:10153000744BD3E9000166A3D3E90023FFF756F902
:1015400002460B4610461946FFF7C0FA0346C3F59C
:10155000057301331A466D4B1A606B4BD3E90001DA
:101560004FF000026A4BFFF77FFA0346002B14D0BE
:10157000644BD3E9000156A3D3E90023FFF736F902
:1015800002460B4610461946FFF7A0FA0346C3F57C
:101590001F7301331A465D4B1A605B4BD3E90001A0
:1015A0004FF000025B4BFFF75FFA0346002B13D0AE
:1015B000544BD3E9000146A3D3E90023FFF716F902
:1015C00002460B4610461946FFF780FA0346C3F55C
:1015D000C6731A464D4B1A604C4B1B681846FEF7F3
:1015E00061FF4D4BD3E90023FFF766FA0346002B5A
:1015F0000AD0494BD3E9002310461946FFF78EFA6B
:101600000346424A136016E0404B1B681846FEF73B
:1016100049FF424BD3E90023FFF730FA0346002B82
:1016200009D03E4BD3E9002310461946FFF776FA5E
:101630000346364A1360354B1B68DAB22D4B9A715C
:101640002C4B9A79364B1A70304B1B681B0ADAB256
:10165000284BDA71274BDA79324B1A70324B1A78F1
:10166000324B1B781344DAB2314B1B781344DAB295
:10167000304B1B781344DAB2294B1B781344DAB28F
:10168000284B1B781344DAB22B4B1B781344DAB285
:101690002A4B1B781344DBB2DB43DAB2154B9A7248
:1016A000144B9A7A264B1A7001224FF480410A4853
:1016B00001F0C4FE0A230B220E490F4805F038FF43
:1016C00000224FF48041044801F0B8FE1AE700BF41
:1016D0008FC2F5285C8FD23F0004004800100048FC
:1016E000DC01002074010020D8A50008E0A5000856
:1016F000D8030020DC000020FC0200207004002041
:101700006C02002060010020300100200000002059
:1017100000003EC000003E40400000204800002085
:10172000D6000020D7000020090000200A00002079
:101730000B0000200C000020D8000020D900002061
:10174000DA00002080B400AF72B600BFFEE70000F0
:10175000B0B582B000AF786039607B68012B40F093
:1017600017813B684FF6FF72934240F011818A4B1C
:101770001B68DAB2894B1A70874B1B681B0ADAB2F6
:10178000874B1A70874B1B68DAB2874B1A70854BF0
:101790001B681B0ADAB2854B1A70854B1A78854B89
:1017A0001B781344DAB2844B1B781344DAB2834BB0
:1017B0001B781344DAB2794B1B781344DAB2784BB6
:1017C0001B781344DAB2784B1B781344DAB2774BA8
:1017D0001B781344DBB2DB43DAB2794B1A70794BD6
:1017E0001A78794B1A70774B1A78774B5A70704B7E
:1017F0001A78754B9A706F4B1A78734BDA706E4B80
:101800001A78714B1A716D4B1A786F4B5A71634B82
:101810001A786D4B9A71624B1A786B4BDA71624B86
:101820001A78694B1A72614B1A78674B5A72644B7B
:101830001A78654B9A725E4B1A785F4B1B7813448B
:10184000DAB2624B1B781344DAB2614B1B78134453
:10185000DAB26FF004039B1ADAB25E4B1A705B4B7C
:101860001A785D4B5A715A4B1A785B4B9A71594BE7
:101870001A78594BDA71594BD3E90045584BB3F9F3
:1018800000301846FEF71EFE02460B46204629464B
:10189000FEF7CAFC02460B465249C1E90023504BF1
:1018A000B3F900301846FEF70DFE4F4BD3E9002385
:1018B000FEF7BAFC02460B464C49C1E900234C4BEB
:1018C000D3E900014B4BD3E90023FEF7ADFC024600
:1018D0000B464949C1E90023484BD3E90001464B77
:1018E000D3E90023FEF7A2FC02460B464449C1E9B6
:1018F0000023444BD3E900013F4BD3E90023FEF71B
:101900004BFE02460B46104619463F4BD3E90023D7
:10191000FEF742FE02460B463C49C1E90023354B27
:10192000D3E900013A4BD3E90023FEF77DFC0246E0
:101930000B463849C1E90023364BD3E90001324B4D
:10194000D3E90023FEF752FF02460B461046194624
:10195000314BD3E90023FEF71FFE02460B462F4909
:10196000C1E90023264BD3E90001284BD3E900232A
:10197000FEF75CFC02460B4610461946274BD3E99E
:101980000023FEF753FC02460B462549C1E900231C
:1019900000BF0837BD46B0BD00000020D6000020C3
:1019A000D700002004000020D8000020D90000202B
:1019B000090000200A0000200B0000200C0000207D
:1019C000DA00002008000020DC0000200D000020CC
:1019D000E7000020E800002010000020080100209F
:1019E0000401002018010020100100202001002027
:1019F00030010020F00000203801002018000020F5
:101A0000400100202000002030000020480100207C
:101A1000280100205001002028000020580100204B
:101A20006001002080B500AF4FF6FF710120FFF785
:101A30008FFE80BD80B500AF01221021044801F067
:101A4000FDFC00222021024801F0F8FC00BF80BD0F
:101A50000010004880B500AF00221021044801F0BA
:101A6000EDFC01222021024801F0E8FC00BF80BD0E
:101A70000010004880B500AF00221021044801F09A
:101A8000DDFC00222021024801F0D8FC00BF80BD0F
:101A90000010004880B483B000AF78607B681A887B
:101AA0007B68DB689A6100BF0C37BD465DF8047B3C
:101AB000704780B483B000AF78607B685A887B68D9
:101AC0001B699A6100BF0C37BD465DF8047B704707
:101AD00080B483B000AF78607B689A887B685B696C
:101AE0009A6100BF0C37BD465DF8047B704780B437
:101AF00083B000AF78607B68DA887B689B699A6105
:101B000000BF0C37BD465DF8047B704780B483B0DE
:101B100000AF78607B681A897B68DB699A6100BFD7
:101B20000C37BD465DF8047B704780B483B000AFCE
:101B300078607B681A887B68DB689A6200BF0C3724
:101B4000BD465DF8047B704780B483B000AF786019
:101B50007B685A887B681B699A6200BF0C37BD4658
:101B60005DF8047B704780B483B000AF78607B6819
:101B70009A887B685B699A6200BF0C37BD465DF846
:101B8000047B704780B483B000AF78607B68DA88EC
:101B90007B689B699A6200BF0C37BD465DF8047B89
:101BA000704780B483B000AF78607B681A897B6827
:101BB000DB699A6200BF0C37BD465DF8047B704755
:101BC00080B582B000AF7860084611461A460346D9
:101BD000FB700B46BB7013467B707868FFF7E1FF24
:101BE0007868FFF784FF7868FFF7BDFF7868FFF734
:101BF00051FF7868FFF78AFF8121786800F00AF8C2
:101C00007B78BA78F978786800F0ACF800BF0837CC
:101C1000BD4680BD80B584B000AF78600B46FB70D8
:101C20007868FFF755FF7868FFF734FF7868FFF7AB
:101C3000A9FF0023FB8119E07868FFF776FF97F989
:101C40000330002B03DA7868FFF733FF02E078688F
:101C5000FFF77AFF7868FFF71DFFFB785B00FB70EA
:101C6000B7F90E309BB201339BB2FB81B7F90E304E
:101C7000072BE1DD7868FFF73AFF7868FFF755FF3B
:101C80007868FFF770FF00BF1037BD4680BD80B594
:101C900084B000AF786039607868FFF7FBFE786841
:101CA000FFF770FF0023FB814BE00423BB813BE087
:101CB0007868FFF73AFF3B681B781846B7F90C20A5
:101CC000796803469B0003440B44134422331B787A
:101CD000FB727868FFF7DEFE00233B811AE078682C
:101CE000FFF723FFFB7A03F00103002B03D0786892
:101CF000FFF7DFFE02E07868FFF726FF7868FFF75E
:101D0000C9FEFB7A5B08FB72B7F908309BB201335E
:101D10009BB23B81B7F90830062BE0DDB7F90C30F8
:101D20009BB2013B9BB2BB81B7F90C30002BBFDAF1
:101D30003B6801333B60B7F90E309BB201339BB275
:101D4000FB81B7F90E307A6892F820209342ACDB21
:101D50007868FFF7CCFE7868FFF7E7FE00BF103722
:101D6000BD4680BD80B584B000AF7860084611469E
:101D70001A460346FB700B46BB7013467B707B789C
:101D8000002B02D00023FB7301E04023FB73FB78A0
:101D9000032B04D8FB7B43F00103FB736EE0FB785D
:101DA000042B04D8FB7B43F00203FB7366E0FB7853
:101DB000062B04D8FB7B43F00303FB735EE0FB7848
:101DC000082B04D8FB7B43F00403FB7356E0FB783D
:101DD0000B2B04D8FB7B43F00503FB734EE0FB7831
:101DE0000E2B04D8FB7B43F00603FB7346E0FB7825
:101DF000112B04D8FB7B43F00703FB733EE0FB7819
:101E0000162B04D8FB7B43F00803FB7336E0FB780A
:101E10001D2B04D8FB7B43F00903FB732EE0FB78FA
:101E2000242B04D8FB7B43F00A03FB7326E0FB78EA
:101E30002E2B04D8FB7B43F00B03FB731EE0FB78D7
:101E40003B2B04D8FB7B43F00C03FB7316E0FB78C1
:101E50004F2B04D8FB7B43F00D03FB730EE0FB78A4
:101E6000632B04D8FB7B43F00E03FB7306E0FB7887
:101E7000642B03D1FB7B43F00F03FB73BB78312B47
:101E800004D8FB7B43F02003FB7311E0BB78482BA5
:101E900004D8FB7B43F01003FB7309E0BB78632B92
:101EA00006D9BB78642B03D1FB7B43F03003FB7373
:101EB000FB7B19467868FFF7ADFE00BF1037BD46C3
:101EC00080BD0EB480B589B000AF786000233B615F
:101ED00007F1140300221A605A609A6007F1300378
:101EE000FB6007F11003FA68F96A184607F0EEFD87
:101EF00007F1100319467868FFF7C9FE00BF2437C1
:101F0000BD46BDE8804003B07047000080B584B096
:101F100000AFF860B9607A60FB68BA681A60054A79
:101F20007B685360034805F0B3FAFB681846103726
:101F3000BD4680BDDC0100200EB490B5A4B000AF5A
:101F4000786000233B6107F114037C2200211846CE
:101F500007F0C6FD07F1A003FB6007F11003FA6864
:101F6000D7F89C10184607F0B1FD7B681C6807F194
:101F700010031846FEF76AFF03469AB207F11003F2
:101F80001946204605F06AFB00BF9037BD46BDE804
:101F9000904003B0704700000D4885460D480E493B
:101FA0000E4A002302E0D458C4500433C4188C42B3
:101FB000F9D30B4A0B4C002301E013600432A24218
:101FC000FBD300F0F5F907F0E7FDFFF7FDF9FEE7B9
:101FD0000000022000000020AC0000207CA60008C9
:101FE000B00000205C060020FEE7000080B58CB049
:101FF00000AF07F11C0300221A605A609A60DA6091
:102000001A61534BDB6C524A43F01003D364504BBC
:10201000DB6C03F01003BB61BB694D4BDB6C4C4ABE
:1020200043F00403D3644A4BDB6C03F004037B618D
:102030007B69474BDB6C464A43F02003D364444B37
:10204000DB6C03F020033B613B69414BDB6C404A96
:1020500043F00103D3643E4BDB6C03F00103FB60F0
:10206000FB683B4BDB6C3A4A43F00203D364384BCA
:10207000DB6C03F00203BB60BB68354BDB6C344A9E
:1020800043F00803D364324BDB6C03F008037B603E
:102090007B68002270212F4801F0D0F9002244F221
:1020A000C0012D4801F0CAF9002244F201012B4879
:1020B00001F0C4F900224FF460614FF0904001F04C
:1020C000BDF901224FF400414FF0904001F0B6F904
:1020D0007023FB6101233B6200237B620023BB6210
:1020E00007F11C0319461B4801F026F844F2C0030F
:1020F000FB6101233B6200237B620023BB6207F18B
:102100001C031946144801F017F844F20103FB615F
:1021100001233B6200237B620023BB6207F11C03A7
:1021200019460E4801F008F84FF40E43FB610123F5
:102130003B6200237B620023BB6207F11C0319464C
:102140004FF0904000F0F8FF00BF3037BD4680BD33
:10215000001002400010004800040048000C004835
:1021600080B500AF1B4B1C4A1A601A4B4FF48272A9
:102170005A60184B00229A60164B4FF4E062DA6006
:10218000144B00221A61134B00225A61114B4FF479
:1021900000729A610F4B1022DA610E4B00221A6214
:1021A0000C4B00225A620B4B00229A62094B072209
:1021B000DA62084B00221A63064B00225A63054874
:1021C00003F078FB0346002B01D0FFF7BBFA00BFFA
:1021D00080BD00BF78010020003C004080B58AB07F
:1021E00000AF786007F1140300221A605A609A6009
:1021F000DA601A617B681B68204A934239D1204B10
:102200009B6D1F4A43F4004393651D4B9B6D03F484
:1022100000433B613B691A4BDB6C194A43F00403F2
:10222000D364174BDB6C03F00403FB60FB684FF4D3
:1022300080637B610223BB610223FB6100233B625D
:1022400006237B6207F1140319460E4800F074FF61
:102250004FF4C0537B610223BB610023FB61002369
:102260003B6206237B6207F114031946054800F020
:1022700063FF00BF2837BD4680BD00BF003C004063
:10228000001002400008004880B582B000AF0F4B3C
:102290001B6E0E4A43F0010313660C4B1B6E03F0DA
:1022A00001037B607B68094B9B6D084A43F08053B8
:1022B0009365064B9B6D03F080533B603B6802F0D7
:1022C00067FB00BF0837BD4680BD00BF001002405D
:1022D00080B400AFFEE780B400AFFEE780B400AF8B
:1022E000FEE780B400AFFEE780B400AFFEE780B445
:1022F00000AF00BFBD465DF8047B704780B400AFFF
:1023000000BFBD465DF8047B704780B400AF00BFDE
:10231000BD465DF8047B704780B500AF07F0A8FAB2
:1023200000BF80BD80B500AF024803F02BFF00BFA7
:1023300080BD00BFD803002080B500AF024803F085
:1023400021FF00BF80BD00BF2404002080B500AF86
:10235000024803F017FF00BF80BD00BF70040020DB
:1023600080B500AF024805F077FA00BF80BD00BF1E
:10237000DC01002080B500AF024805F06DFA00BF17
:1023800080BD00BF6C02002080B500AF024801F0A4
:10239000ADFA00BF80BD00BFBC04002080B500AF17
:1023A000024801F0BDFA00BF80BD00BFBC040020A0
:1023B00080B400AF064BD3F88830054A43F470036D
:1023C000C2F8883000BFBD465DF8047B704700BF8F
:1023D00000ED00E080B500AF224B234A1A60214B8C
:1023E0004FF4E1325A601F4B00229A601D4B0022CD
:1023F000DA601C4B00221A611A4B0C225A61194BED
:1024000000229A61174B0022DA61164B00221A62F1
:10241000144B00225A62134B00229A62114805F0B5
:1024200037F80346002B01D0FFF78CF900210D4847
:1024300004F064FF0346002B01D0FFF783F900216D
:10244000084804F099FF0346002B01D0FFF77AF902
:10245000044804F01AFF0346002B01D0FFF772F97D
:1024600000BF80BDDC0100200038014080B500AF16
:10247000224B234A1A60214B4FF416525A601F4BCD
:1024800000229A601D4B0022DA601C4B00221A6168
:102490001A4B0C225A61194B00229A61174B0022E9
:1024A000DA61164B00221A62144B00225A62134B57
:1024B00000229A62114804F0EBFF0346002B01D082
:1024C000FFF740F900210D4804F018FF0346002BE8
:1024D00001D0FFF737F90021084804F04DFF03460B
:1024E000002B01D0FFF72EF9044804F0CEFE03467E
:1024F000002B01D0FFF726F900BF80BD6C02002041
:102500000044004080B500AF224B234A1A60214BA3
:102510004FF4E1325A601F4B00229A601D4B00229B
:10252000DA601C4B00221A611A4B0C225A61194BBB
:1025300000229A61174B0022DA61164B00221A62C0
:10254000144B00225A62134B00229A62114804F085
:102550009FFF0346002B01D0FFF7F4F800210D4840
:1025600004F0CCFE0346002B01D0FFF7EBF800216E
:10257000084804F001FF0346002B01D0FFF7E2F802
:10258000044804F082FE0346002B01D0FFF7DAF87E
:1025900000BF80BDFC0200200048004080B5A4B010
:1025A00000AF786007F17C0300221A605A609A60DD
:1025B000DA601A6107F1280354220021184607F057
:1025C0008FFA7B681B687A4A934242D10123BB622F
:1025D0000023FB6207F12803184602F0E9F90346DD
:1025E000002B01D0FFF7AEF8724B1B6E714A43F41B
:1025F000804313666F4B1B6E03F480437B627B6AE0
:102600006C4BDB6C6B4A43F00403D364694BDB6CAB
:1026100003F004033B623B6A3023FB670223C7F8E5
:1026200080300023C7F884300023C7F888300723A0
:10263000C7F88C3007F17C0319465F4800F07CFD39
:1026400000220021252000F074FC252000F08BFCE6
:10265000A9E07B681B68594A934243D10223BB62BD
:1026600000233B6307F12803184602F0A1F9034653
:10267000002B01D0FFF766F84E4B9B6D4D4A43F49B
:10268000003393654B4B9B6D03F40033FB61FB6997
:10269000484BDB6C474A43F00103D364454BDB6C8A
:1026A00003F00103BB61BB690C23FB670223C7F87E
:1026B00080300023C7F884300023C7F88830072310
:1026C000C7F88C3007F17C0319464FF0904000F0BA
:1026D00033FD00220021262000F02BFC262000F0F4
:1026E00042FC60E07B681B68354A93425BD104235F
:1026F000BB6200237B6307F12803184602F058F9F8
:102700000346002B01D0FFF71DF82A4B9B6D294A89
:1027100043F480239365274B9B6D03F480237B61F7
:102720007B69244BDB6C234A43F01003D364214BB9
:10273000DB6C03F010033B613B691E4BDB6C1D4AF5
:1027400043F00203D3641B4BDB6C03F00203FB601A
:10275000FB684FF40043FB670223C7F88030002377
:10276000C7F884300023C7F888300723C7F88C30B7
:1027700007F17C031946134800F0DEFC4FF4806338
:10278000FB670223C7F880300023C7F8843000239A
:10279000C7F888300723C7F88C3007F17C03194647
:1027A000094800F0C9FC00BF9037BD4680BD00BF9E
:1027B000003801400010024000080048004400407A
:1027C00000480040001000480004004880B58CB06C
:1027D00000AF07F10C0324220021184607F080F90E
:1027E0003B4600221A605A609A60234B234A1A60C3
:1027F000214B00225A60204B00229A601E4B4FF65C
:10280000FF72DA601C4B00221A611B4B00225A61D6
:10281000194B00229A610123FB6000233B610123D5
:102820007B610023BB610023FB6100233B6201232A
:102830007B620023BB620023FB6207F10C03194695
:102840000D4803F0F9FB0346002B01D0FEF77AFF99
:1028500000233B6000237B600023BB603B4619469E
:10286000054803F0D3F80346002B01D0FEF76AFFBA
:1028700000BF3037BD4680BD8C030020002C0140D6
:1028800080B58AB000AF07F11C0300221A605A60BD
:102890009A603B4600221A605A609A60DA601A61B8
:1028A0005A619A61214B4FF080421A601F4B63229C
:1028B0005A601E4B00229A601C4B6322DA601B4B4D
:1028C00000221A61194B80229A61184803F04AFAD3
:1028D0000346002B01D0FEF735FF0023FB610023E8
:1028E0007B6207F11C031946104803F08FF803467A
:1028F000002B01D0FEF726FF60233B6031237B6075
:102900000023BB6000233B613B4600221946074879
:1029100003F0B8FD0346002B01D0FEF713FF034878
:1029200000F04CF900BF2837BD4680BDD803002019
:1029300080B588B000AF07F1100300221A605A601A
:102940009A60DA603B1D00221A605A609A601D4B43
:102950001D4A1A601B4B42F20F725A60194B00223B
:102960009A60184BF922DA60164B00221A61154B57
:1029700000229A61134803F025F90346002B01D089
:10298000FEF7E0FE4FF480533B6107F11003194658
:102990000C4803F08BFE0346002B01D0FEF7D2FE5D
:1029A00000237B600023FB603B1D1946054803F0B4
:1029B0002DF80346002B01D0FEF7C4FE00BF2037E0
:1029C000BD4680BD240400200004004080B588B0CE
:1029D00000AF07F1100300221A605A609A60DA60B3
:1029E0003B1D00221A605A609A601D4B1D4A1A60F6
:1029F0001B4B40F2E7325A60194B00229A60184B89
:102A0000C722DA60164B00221A61154B00229A6128
:102A1000134803F0D7F80346002B01D0FEF792FECF
:102A20004FF480533B6107F1100319460C4803F043
:102A30003DFE0346002B01D0FEF784FE00237B60A1
:102A40000023FB603B1D1946054802F0DFFF0346EB
:102A5000002B01D0FEF776FE00BF2037BD4680BDBB
:102A6000700400200008004080B58AB000AF786094
:102A700007F1140300221A605A609A60DA601A6142
:102A80007B681B68174A934227D1174B1B6E164A67
:102A900043F400631366144B1B6E03F400633B6145
:102AA0003B69114BDB6C104A43F00403D3640E4BBB
:102AB000DB6C03F00403FB60FB6803237B610223F0
:102AC000BB610023FB6100233B6202237B6207F1B1
:102AD00014031946054800F02FFB00BF2837BD46F8
:102AE00080BD00BF002C01400010024000080048DB
:102AF00080B584B000AF78607B681B68B3F1804F0D
:102B000013D10C4B9B6D0B4A43F001039365094BAA
:102B10009B6D03F00103FB60FB68002200211C2079
:102B200000F007FA1C2000F01EFA00BF1037BD4667
:102B300080BD00BF0010024080B584B000AF786057
:102B40007B681B681A4A934214D11A4B9B6D194A31
:102B500043F002039365174B9B6D03F00203FB6088
:102B6000FB68002200211D2000F0E3F91D2000F089
:102B7000FAF918E07B681B680F4A934213D10D4B9A
:102B80009B6D0C4A43F0040393650A4B9B6D03F065
:102B90000403BB60BB68002200211E2000F0C9F9BD
:102BA0001E2000F0E0F900BF1037BD4680BD00BF19
:102BB00000040040001002400008004080B588B0CA
:102BC00000AF786007F10C0300221A605A609A6027
:102BD000DA601A617B681B68B3F1804F1BD1104B20
:102BE000DB6C0F4A43F00803D3640D4BDB6C03F03E
:102BF0000803BB60BB680823FB6002233B61002322
:102C00007B610023BB610223FB6107F10C031946C2
:102C1000044800F091FA00BF2037BD4680BD00BFD8
:102C200000100240000C004880B500AF1B4B1C4A4E
:102C30001A601A4B1B4A5A60184B00229A60174BB5
:102C40000122DA60154B00221A61144B00225A61EE
:102C5000124B00229A61114B0022DA610F4B0022C5
:102C60001A620E4800F099FC0346002B01D0FEF7D3
:102C700069FD0021094800F0F9FB0346002B01D053
:102C8000FEF760FD0021054800F03BFC0346002BE9
:102C900001D0FEF757FD00BF80BD00BFBC0400207F
:102CA00000780040B634900080B59EB000AF7860E8
:102CB00007F1640300221A605A609A60DA601A61B0
:102CC00007F1100354220021184606F009FF7B6823
:102CD0001B68274A934247D14FF480733B6100231E
:102CE0007B6307F11003184601F062FE0346002BD8
:102CF00001D0FEF727FD1F4BDB6C1E4A43F0040397
:102D0000D3641C4BDB6C03F00403FB60FB684FF4E3
:102D100040737B661223BB660023FB6600233B6780
:102D200008237B6707F164031946134800F004FA8F
:102D3000104B9B6D0F4A43F0804393650D4B9B6D89
:102D400003F08043BB60BB68002200215C2000F0E0
:102D5000F0F85C2000F007F9002200215D2000F06F
:102D6000E8F85D2000F0FFF800BF7837BD4680BD71
:102D700000780040001002400008004880B485B090
:102D800000AF78607B6803F00703FB600C4BDB68E7
:102D9000BB60BA684FF6FF031340BB60FB681A02C2
:102DA000BB68134343F0BF6343F40033BB60044A82
:102DB000BB68D36000BF1437BD465DF8047B704725
:102DC00000ED00E080B400AF044BDB681B0A03F0A9
:102DD00007031846BD465DF8047B704700ED00E030
:102DE00080B483B000AF0346FB7197F90730002B26
:102DF0000BDBFB7903F01F02074997F907305B09EA
:102E0000012000FA02F241F8232000BF0C37BD4632
:102E10005DF8047B704700BF00E100E080B483B040
:102E200000AF03463960FB7197F90730002B0ADBCE
:102E30003B68DAB20C4997F907301201D2B20B4461
:102E400083F800230AE03B68DAB20849FB7903F013
:102E50000F03043B1201D2B20B441A7600BF0C37A9
:102E6000BD465DF8047B704700E100E000ED00E046
:102E700080B489B000AFF860B9607A60FB6803F095
:102E80000703FB61FB69C3F10703042B28BF04237D
:102E9000BB61FB690433062B02D9FB69033B00E0ED
:102EA00000237B614FF0FF32BB6902FA03F3DA4380
:102EB000BB681A407B699A404FF0FF317B6901FA89
:102EC00003F3D9437B680B40134318462437BD46B0
:102ED0005DF8047B7047000080B582B000AF786079
:102EE0007B68013BB3F1807F01D301230FE00A4AE5
:102EF0007B68013B53600F214FF0FF30FFF78EFFDF
:102F0000054B00229A60044B07221A6000231846E2
:102F10000837BD4680BD00BF10E000E080B582B03C
:102F200000AF78607868FFF729FF00BF0837BD461B
:102F300080BD80B586B000AF0346B9607A60FB7390
:102F4000FFF740FF78617A68B9687869FFF790FF0A
:102F5000024697F90F3011461846FFF75FFF00BF92
:102F60001837BD4680BD80B582B000AF0346FB7107
:102F700097F907301846FFF733FF00BF0837BD4603
:102F800080BD80B582B000AF78607868FFF7A4FF9D
:102F9000034618460837BD4680BD80B485B000AFF3
:102FA00078600023FB737B6893F82530DBB2022B3B
:102FB00005D07B680422DA630123FB7337E07B686A
:102FC0001B681A687B681B6822F00E021A607B6817
:102FD0009B6C1A687B689B6C22F480721A607B6819
:102FE0001B681A687B681B6822F001021A607B6804
:102FF0005B6C03F01F027B681B6C012101FA02F27B
:103000005A607B68DB6C7A68126D5A607B685B6D16
:10301000002B0CD07B685B6D1A687B685B6D22F4BB
:1030200080721A607B689B6D7A68D26D5A607B688B
:10303000012283F825207B68002283F82420FB7B73
:1030400018461437BD465DF8047B704780B584B0E0
:1030500000AF78600023FB737B6893F82530DBB208
:10306000022B0DD07B680422DA637B68012283F88F
:1030700025207B68002283F824200123FB7347E08E
:103080007B681B681A687B681B6822F00E021A6056
:103090007B681B681A687B681B6822F001021A6053
:1030A0007B689B6C1A687B689B6C22F480721A6048
:1030B0007B685B6C03F01F027B681B6C012101FACB
:1030C00002F25A607B68DB6C7A68126D5A607B682A
:1030D0005B6D002B0CD07B685B6D1A687B685B6D49
:1030E00022F480721A607B689B6D7A68D26D5A6098
:1030F0007B68012283F825207B68002283F8242046
:103100007B689B6B002B03D07B689B6B7868984730
:10311000FB7B18461037BD4680BD80B483B000AF3E
:1031200078607B6893F82530DBB218460C37BD46D3
:103130005DF8047B7047000080B487B000AF786012
:10314000396000237B615AE13B681A6801217B6981
:1031500001FA03F31340FB60FB68002B00F04C8185
:103160003B685B6803F00303012B05D03B685B6899
:1031700003F00303022B30D17B689B683B617B69C2
:103180005B00032202FA03F3DB433A6913403B611D
:103190003B68DA687B695B0002FA03F33A69134320
:1031A0003B617B683A699A607B685B683B6101229E
:1031B0007B6902FA03F3DB433A6913403B613B68E6
:1031C0005B681B0903F001027B6902FA03F33A69A9
:1031D00013433B617B683A695A603B685B6803F064
:1031E0000303032B17D07B68DB683B617B695B00C3
:1031F000032202FA03F3DB433A6913403B613B6865
:103200009A687B695B0002FA03F33A6913433B61F6
:103210007B683A69DA603B685B6803F00303022B62
:1032200023D17B69DA087B68083253F822303B618E
:103230007B6903F007039B000F2202FA03F3DB43D1
:103240003A6913403B613B681A697B6903F00703E5
:103250009B0002FA03F33A6913433B617B69DA0886
:103260007B680832396943F822107B681B683B6130
:103270007B695B00032202FA03F3DB433A691340E4
:103280003B613B685B6803F003027B695B0002FA09
:1032900003F33A6913433B617B683A691A603B6800
:1032A0005B6803F44033002B00F0A6805B4B1B6E81
:1032B0005A4A43F001031366584B1B6E03F0010397
:1032C000BB60BB68564A7B699B08023352F82330C7
:1032D0003B617B6903F003039B000F2202FA03F3B7
:1032E000DB433A6913403B617B68B3F1904F1FD0D9
:1032F0007B684C4A934219D07B684B4A934213D067
:103300007B684A4A93420DD07B68494A934207D072
:103310007B68484A934201D105230AE0062308E06E
:10332000042306E0032304E0022302E0012300E07B
:1033300000237A6902F00302920093403A69134332
:103340003B6137497B699B0802333A6941F8232086
:10335000394B9B683B61FB68DB433A6913403B6137
:103360003B685B6803F48013002B03D03A69FB6869
:1033700013433B61304A3B6993602F4BDB683B61F1
:10338000FB68DB433A6913403B613B685B6803F4CD
:103390000013002B03D03A69FB6813433B61264AB4
:1033A0003B69D360244B5B683B61FB68DB433A6954
:1033B00013403B613B685B6803F40033002B03D090
:1033C0003A69FB6813433B611B4A3B6953601A4BE4
:1033D0001B683B61FB68DB433A6913403B613B6818
:1033E0005B6803F48033002B03D03A69FB68134316
:1033F0003B61114A3B6913607B6901337B613B6828
:103400001A687B6922FA03F3002B7FF49DAE00BF9C
:1034100000BF1C37BD465DF8047B704700100240BA
:10342000000001400004004800080048000C00486B
:1034300000100048001400480004014080B483B02C
:1034400000AF78600B467B8013467B707B78002B47
:1034500003D07A887B689A6102E07A887B689A62F6
:1034600000BF0C37BD465DF8047B704780B483B065
:1034700000AF786039607B6893F84130DBB2202B75
:1034800038D17B6893F84030012B01D1022332E020
:103490007B68012283F840207B68242283F8412046
:1034A0007B681B681A687B681B6822F001021A603F
:1034B0007B681B681A687B681B6822F480521A605C
:1034C0007B681B6819687B681B683A680A431A6046
:1034D0007B681B681A687B681B6842F001021A60EF
:1034E0007B68202283F841207B68002283F84020FB
:1034F000002300E0022318460C37BD465DF8047B2C
:10350000704780B485B000AF786039607B6893F80D
:103510004130DBB2202B39D17B6893F84030012B4E
:1035200001D1022333E07B68012283F840207B68CD
:10353000242283F841207B681B681A687B681B681B
:1035400022F001021A607B681B681B68FB60FB6845
:1035500023F47063FB603B681B02FA681343FB6053
:103560007B681B68FA681A607B681B681A687B684E
:103570001B6842F001021A607B68202283F8412018
:103580007B68002283F84020002300E002231846D5
:103590001437BD465DF8047B704780B582B000AF3C
:1035A00078607B68002B01D1012381E07B6893F870
:1035B0004130DBB2002B06D17B68002283F840202B
:1035C0007868FFF771FB7B68242283F841207B68D1
:1035D0001B681A687B681B6822F001021A607B680E
:1035E0005A687B681B6822F070621A617B681B68EE
:1035F0009A687B681B6822F400429A607B68DB68EB
:10360000012B07D17B689A687B681B6842F40042F3
:103610009A6006E07B689A687B681B6842F4044203
:103620009A607B68DB68022B04D17B681B684FF4CF
:1036300000625A607B681B685B687A68126843F0B6
:10364000007343F4004353607B681B68DA687B684F
:103650001B6822F40042DA607B681A697B685B6948
:1036600042EA03017B689B691A027B681B680A4374
:10367000DA607B68D9697B681A6A7B681B680A43D1
:103680001A607B681B681A687B681B6842F001023D
:103690001A607B6800225A647B68202283F84120EC
:1036A0007B6800221A637B68002283F84220002393
:1036B00018460837BD4680BD80B588B002AFF860B7
:1036C000084611461A4603467B810B463B8113464A
:1036D000FB80FB6893F84130DBB2202B40F0FD808B
:1036E0003B6A002B02D0BB8C002B05D1FB684FF44A
:1036F00000725A640123F1E0FB6893F84030012B1B
:1037000001D10223EAE0FB68012283F8402006F0A1
:10371000C1F878617B690093192301224FF40041BD
:10372000F86800F058FE0346002B01D00123D5E0D5
:10373000FB68222283F84120FB68402283F8422064
:10374000FB6800225A64FB683A6A5A62FB68BA8CCA
:103750005A85FB6800225A63F8883A8979897B691F
:103760000193BB6A00930346F86800F06DFA0346C4
:10377000002B05D0FB68002283F840200123ADE038
:10378000FB685B8D9BB2FF2B0ED9FB68FF221A856D
:10379000FB681B8DDAB27989524B00934FF080732E
:1037A000F86800F0C1FF0FE0FB685B8D9AB2FB6820
:1037B0001A85FB681B8DDAB279894A4B00934FF06A
:1037C0000073F86800F0B0FF7B690093BB6A0022C9
:1037D0000421F86800F0FFFD0346002B01D001230F
:1037E0007CE0FB681B685A6AFB685B6AD2B21A709D
:1037F000FB685B6A5A1CFB685A62FB681B8D013BC5
:103800009AB2FB681A85FB685B8D9BB2013B9AB24A
:10381000FB685A85FB685B8D9BB2002B34D0FB683C
:103820001B8D002B30D17B690093BB6A0022802165
:10383000F86800F0D0FD0346002B01D001234DE0D5
:10384000FB685B8D9BB2FF2B0ED9FB68FF221A85AC
:10385000FB681B8DDAB27989002300934FF08073E7
:10386000F86800F061FF0FE0FB685B8D9AB2FB68BF
:103870001A85FB681B8DDAB27989002300934FF01B
:103880000073F86800F050FFFB685B8D9BB2002B63
:103890009AD17A69B96AF86800F01DFE0346002BD8
:1038A00001D001231AE0FB681B682022DA61FB6863
:1038B0001B685968FB681A680B4B0B405360FB6828
:1038C000202283F84120FB68002283F84220FB6815
:1038D000002283F84020002300E002231846183716
:1038E000BD4680BD0024008000E800FE80B584B0A5
:1038F00000AF78607B681B689B69FB607B681B6816
:103900001B68BB607B685B6B002B05D07B685B6BC7
:10391000BA68F9687868984700BF1037BD4680BD1F
:1039200080B586B000AF78607B681B689B697B615F
:103930007B681B681B683B617B6903F48073002B09
:103940000FD03B6903F08003002B0AD07B685B6CCF
:1039500043F001027B685A647B681B684FF48072F5
:10396000DA617B6903F48063002B0FD03B6903F0BD
:103970008003002B0AD07B685B6C43F008027B68F5
:103980005A647B681B684FF48062DA617B6903F4D8
:103990000073002B0FD03B6903F08003002B0AD08B
:1039A0007B685B6C43F002027B685A647B681B682F
:1039B0004FF40072DA617B685B6CFB60FB6803F0BC
:1039C0000B03002B03D0F968786800F0CBFB00BF35
:1039D0001837BD4680BD80B483B000AF786000BFAB
:1039E0000C37BD465DF8047B704780B483B000AFF0
:1039F000786000BF0C37BD465DF8047B704780B42B
:103A000083B000AF78600B46FB7013463B8000BF6D
:103A10000C37BD465DF8047B704780B483B000AFBF
:103A2000786000BF0C37BD465DF8047B704780B4FA
:103A300083B000AF786000BF0C37BD465DF8047BF3
:103A4000704780B483B000AF786000BF0C37BD46CC
:103A50005DF8047B704780B586B000AFF860B96050
:103A60007A60FB68DB6A7B61BB683B61FB6893F84B
:103A70004030012B01D10223E1E0FB68012283F8F1
:103A800040203B6903F02003002B08D07B6803F043
:103A90002003002B03D03969F86800F009FA3B696C
:103AA00003F01003002B4BD07B6803F01003002BB6
:103AB00046D0FB685B8D9BB2002B28D1FB6893F846
:103AC0004130DBB2282B08D17B69B3F1007F04D1F0
:103AD0003969F86800F0F2FA31E0FB6893F8413098
:103AE000DBB2292B0ED17B6913F5803F0AD0FB682E
:103AF0001B681022DA61F86800F02BFCF86800F00F
:103B00007BF91CE0FB681B681022DA618FE0FB6820
:103B10001B681022DA61FB685B6C43F00402FB68EF
:103B20005A647B69002B03D07B69B3F1807F7ED11F
:103B3000FB685B6C1946F86800F014FB77E076E0F0
:103B40003B6903F00403002B2FD07B6803F00403D0
:103B5000002B2AD0FB685B8D9BB2002B18D0FB6832
:103B60001B685A6AFB685B6AD2B21A70FB685B6AB0
:103B70005A1CFB685A62FB681B8D013B9AB2FB68BA
:103B80001A85FB685B8D9BB2013B9AB2FB685A8534
:103B9000FB685B8D9BB2002B4BD17B6913F5803F9B
:103BA00047D0F86800F028F943E03B6903F00803C8
:103BB000002B09D07B6803F00803002B04D039697F
:103BC000F86800F095F835E03B6903F00203002B3C
:103BD00030D07B6803F00203002B2BD0FB685B8D99
:103BE0009BB2002B18D0FB685B6A1A78FB681B68D5
:103BF0009A62FB685B6A5A1CFB685A62FB685B8DC1
:103C00009BB2013B9AB2FB685A85FB681B8D013B56
:103C10009AB2FB681A850DE07B69B3F1807F02D010
:103C20007B69002B06D1F86800F0E6F802E000BFDF
:103C300000E000BFFB68002283F840200023184604
:103C40001837BD4680BD000080B586B002AFF86071
:103C5000084611461A4603467B810B463B811346B4
:103C6000FB80FB88DAB27989204B00930023F86847
:103C700000F05AFDFA69B969F86800F0ECFB0346F8
:103C8000002B01D001232CE0FB88012B05D13B89BF
:103C9000DAB2FB681B689A6215E03B891B0A9BB28B
:103CA000DAB2FB681B689A62FA69B969F86800F0D1
:103CB000D2FB0346002B01D0012312E03B89DAB28C
:103CC000FB681B689A62FB690093BB690022402174
:103CD000F86800F080FB0346002B01D0012300E0D0
:103CE000002318461037BD4680BD00BF002000806D
:103CF00080B584B000AF786039607B6893F841305C
:103D0000DBB203F02803282B6AD17B681B689B6910
:103D10001B0CDBB203F00103FB737B681B689B6920
:103D20001B0C9BB203F0FE03BB817B681B689B6886
:103D30009BB2C3F309037B817B681B68DB689BB282
:103D400003F0FE033B817B68DB68022B38D17B8963
:103D5000DB099AB2BB8953409BB203F00603002BE8
:103D60001CD17B89BB817B689B6C5A1C7B689A64E5
:103D70007B689B6C022B3BD17B6800229A647B683A
:103D80001B680822DA617B68002283F84020BA8928
:103D9000FB7B19467868FFF732FE29E03B89BB813F
:103DA0004FF40041786800F0F1FC7B68002283F852
:103DB0004020BA89FB7B19467868FFF720FE17E0A0
:103DC0004FF40041786800F0E1FC7B68002283F842
:103DD0004020BA89FB7B19467868FFF710FE07E0A0
:103DE0007B681B680822DA617B68002283F8402028
:103DF00000BF1037BD4680BD80B584B000AF78608D
:103E00007B681B681B68FB607B68002283F842208C
:103E1000FB6803F48043002B08D07B681B681A689A
:103E20007B681B6822F480421A600CE0FB6803F494
:103E30000043002B07D07B681B681A687B681B68EF
:103E400022F400421A607B6893F84130DBB2292BE0
:103E500012D17B68282283F841207B6821221A63D3
:103E60000121786800F092FC7B68002283F84020F2
:103E70007868FFF7B0FD17E07B6893F84130DBB25C
:103E80002A2B11D17B68282283F841207B682222CB
:103E90001A630221786800F079FC7B68002283F8BD
:103EA00040207868FFF7A1FD00BF1037BD4680BDF8
:103EB00080B586B000AF786039607B681B681B688E
:103EC0003B613B687B617B6893F84130FB737B68A7
:103ED0001B682022DA61FB7B212B02D0FB7B292B84
:103EE00008D148F20101786800F050FC7B6821227B
:103EF0001A630DE0FB7B222B02D0FB7B2A2B07D120
:103F000048F20201786800F041FC7B6822221A63C3
:103F10007B681B685A687B681B6842F400425A60E1
:103F20007B681B6859687B681A68624B0B4053605A
:103F3000786800F00EFA3B6903F48043002B13D03D
:103F40007B681B681A687B681B6822F480421A60D1
:103F50007B689B6B002B1FD07B689B6B1B685B682F
:103F60009AB27B685A8517E03B6903F40043002B43
:103F700012D07B681B681A687B681B6822F40042B9
:103F80001A607B68DB6B002B06D07B68DB6B1B68E1
:103F90005B689AB27B685A857B6903F00403002B47
:103FA00020D07B6923F004037B617B681B685A6A1D
:103FB0007B685B6AD2B21A707B685B6A5A1C7B684A
:103FC0005A627B681B8D002B0CD07B681B8D013BDC
:103FD0009AB27B681A857B685B8D9BB2013B9AB273
:103FE0007B685A857B685B8D9BB2002B05D07B6814
:103FF0005B6C43F004027B685A647B68002283F8A0
:1040000042207B6800225A637B685B6C002B10D0D7
:104010007B685B6C1946786800F0A4F87B6893F8BD
:104020004130DBB2282B41D17969786800F046F83D
:104030003CE07B68DB6A13F5803F14D07868FFF7BB
:10404000DBFE7B681C4ADA627B68202283F8412011
:104050007B6800221A637B68002283F8402078681E
:10406000FFF7DBFC22E07B6893F84130DBB2222BC8
:104070000ED17B68202283F841207B6800221A63DE
:104080007B68002283F840207868FFF7AEFC0DE0E3
:104090007B68202283F841207B6800221A637B68BA
:1040A000002283F840207868FFF795FC00BF18379E
:1040B000BD4680BD00E800FE0000FFFF80B582B075
:1040C00000AF786039607B68254ADA627B6800223D
:1040D0001A637B68202283F841207B68002283F8E2
:1040E00042207B6800225A633B6803F00403002BE4
:1040F00022D07B681B685A6A7B685B6AD2B21A70EE
:104100007B685B6A5A1C7B685A627B681B8D002B3C
:1041100012D07B681B8D013B9AB27B681A857B6845
:104120005B8D9BB2013B9AB27B685A857B685B6C66
:1041300043F004027B685A6448F20301786800F097
:1041400025FB7B681B681022DA617B68002283F8FC
:1041500040207868FFF761FC00BF0837BD4680BD8E
:104160000000FFFF80B584B000AF786039607B68E5
:1041700093F84130FB737B68002283F842207B6810
:104180005D4ADA627B6800225A857B685A6C3B681C
:104190001A437B685A64FB7B282B05D0FB7B292BB9
:1041A00002D0FB7B2A2B0BD10321786800F0EEFABA
:1041B0007B68282283F841207B68504A5A6311E0CB
:1041C00048F20301786800F0E1FA7B6893F8413027
:1041D000DBB2602B03D07B68202283F841207B6810
:1041E00000225A637B681B6BBB607B689B6B002B58
:1041F00039D0BB68112B02D0BB68212B33D17B682F
:104200001B681B6803F48043B3F5804F07D17B68BC
:104210001B681A687B681B6822F480421A607B68FE
:104220009B6B1846FEF779FF0346012B17D07B687E
:104230009B6B334A9A637B68002283F840207B683B
:104240009B6B1846FEF702FF0346002B4DD07B68A0
:104250009B6B9B6B7A68926B1046984745E0786839
:1042600000F050F841E07B68DB6B002B39D0BB6875
:10427000122B02D0BB68222B33D17B681B681B68D2
:1042800003F40043B3F5004F07D17B681B681A683D
:104290007B681B6822F400421A607B68DB6B18465F
:1042A000FEF73BFF0346012B17D07B68DB6B144AFC
:1042B0009A637B68002283F840207B68DB6B18469A
:1042C000FEF7C4FE0346002B11D07B68DB6B9B6BB3
:1042D0007A68D26B1046984709E0786800F012F8C7
:1042E00005E0786800F00EF802E000BF00E000BFD3
:1042F00000BF1037BD4680BD0000FFFF573A0008E1
:104300009B43000880B582B000AF78607B6893F86B
:104310004130DBB2602B0ED17B68202283F8412034
:104320007B6800221A637B68002283F8402078684B
:10433000FFF787FB09E07B6800221A637B68002295
:1043400083F840207868FFF772FB00BF0837BD464E
:1043500080BD80B483B000AF78607B681B689B69C8
:1043600003F00203022B03D17B681B6800229A62D0
:104370007B681B689B6903F00103012B07D07B68F6
:104380001B689A697B681B6842F001029A6100BF52
:104390000C37BD465DF8047B704780B584B000AF34
:1043A00078607B689B6AFB60FB689B6B002B03D08B
:1043B000FB689B6B00229A63FB68DB6B002B03D0CE
:1043C000FB68DB6B00229A63F868FFF79BFF00BF76
:1043D0001037BD4680BD80B584B000AFF860B960CD
:1043E0003B601346FB7122E03B68B3F1FF3F1ED0F8
:1043F00005F050FA0246BB69D31A3A689A4202D3D2
:104400003B68002B13D1FB685B6C43F02002FB6818
:104410005A64FB68202283F84120FB68002283F85D
:104420004220FB68002283F8402001230FE0FB6854
:104430001B689A69BB681340BA689A420CBF012393
:104440000023DBB21A46FB799A42CDD000231846EE
:104450001037BD4680BD80B584B000AFF860B9604C
:104460007A602CE07A68B968F86800F071F8034661
:10447000002B01D001232AE0BB68B3F1FF3F1ED01F
:1044800005F008FA02467B68D31ABA689A4202D34A
:10449000BB68002B13D1FB685B6C43F02002FB6808
:1044A0005A64FB68202283F84120FB68002283F8CD
:1044B0004220FB68002283F84020012307E0FB68CC
:1044C0001B689B6903F00203022BCBD10023184623
:1044D0001037BD4680BD80B584B000AFF860B960CC
:1044E0007A6028E07A68B968F86800F031F8034625
:1044F000002B01D0012326E005F0CCF902467B68B1
:10450000D31ABA689A4202D3BB68002B13D1FB6856
:104510005B6C43F02002FB685A64FB68202283F83E
:104520004120FB68002283F84220FB68002283F8C8
:104530004020012307E0FB681B689B6903F0200310
:10454000202BCFD1002318461037BD4680BD000078
:1045500080B58AB000AFF860B9607A60002387F850
:104560002730FB681B689B69BB6100233B627B684B
:10457000FB61BB6903F01003002B75D0FB681B685F
:104580001022DA6156E0BB68B3F1FF3F52D005F06C
:1045900081F90246FB69D31ABA689A4202D3BB6812
:1045A000002B47D1FB681B685B6803F480437B6189
:1045B000FB6893F84230FB74FB681B689B6903F44B
:1045C0000043B3F5004F2ED17B69B3F5804F2AD05D
:1045D000FB7C202B27D0FB681B685A68FB681B6894
:1045E00042F480425A6005F055F9F8611BE005F08D
:1045F00051F90246FB69D31A192B14D9FB685B6C7D
:1046000043F02002FB685A64FB68202283F84120B3
:10461000FB68002283F84220FB68002283F84020D8
:10462000012387F82730FB681B689B6903F0200390
:10463000202BDCD1FB681B689B6903F02003202B37
:1046400003D097F82730002B9DD097F82730002B08
:1046500003D1FB681B682022DA613B6A43F0040344
:104660003B62012387F82730FB681B689B69BB61AD
:10467000BB6903F48073002B0BD03B6A43F001034A
:104680003B62FB681B684FF48072DA61012387F894
:104690002730BB6903F48063002B0BD03B6A43F0E7
:1046A00008033B62FB681B684FF48062DA610123F8
:1046B00087F82730BB6903F40073002B0BD03B6AEB
:1046C00043F002033B62FB681B684FF40072DA613F
:1046D000012387F8273097F82730002B1CD0F86883
:1046E000FFF737FEFB681B685968FB681A680D4BBB
:1046F0000B405360FB685A6C3B6A1A43FB685A6470
:10470000FB68202283F84120FB68002283F84220C6
:10471000FB68002283F8402097F827301846283796
:10472000BD4680BD00E800FE80B487B000AFF860F1
:104730007B600B467B8113467B727B89C3F3090246
:104740007B7A1B0403F47F031A437B681A433B6A9A
:10475000134323F000437B61FB681B685A683B6A84
:104760005B0D03F48061084B0B43DB4302EA03015A
:10477000FB681B687A690A435A6000BF1C37BD4654
:104780005DF8047B704700BFFF63FF0380B485B012
:1047900000AF78600B467B800023FB607B8803F0D2
:1047A0000103002B0FD0FB6843F04203FB607B68E2
:1047B00093F84130DBB203F02803282B03D0FB68C9
:1047C00043F0B003FB607B8803F00203002B0FD0A3
:1047D000FB6843F04403FB607B6893F84130DBB235
:1047E00003F02803282B03D0FB6843F0B003FB60E1
:1047F000B7F90230002B03DAFB6843F0B803FB6023
:104800007B88102B03D1FB6843F09003FB607B880F
:10481000202B03D1FB6843F02003FB607B88402BF7
:1048200003D1FB6843F04003FB607B681B68196899
:10483000FB68DA437B681B680A401A6000BF1437C4
:10484000BD465DF8047B704780B485B000AF7860EA
:104850007B68002B41D14B4B1B6803F4C063B3F55D
:10486000806F31D1474BD3F88030464A23F48073B0
:10487000C2F88030434B1B6823F4C063414A43F4C1
:1048800000731360404B1B68322202FB03F33F4A64
:10489000A2FB03239B0C0133FB6002E0FB68013B9E
:1048A000FB60384B5B6903F48063B3F5806F02D122
:1048B000FB68002BF2D1334B5B6903F48063B3F5E3
:1048C000806F58D1032357E02E4BD3F880302D4A08
:1048D00023F48073C2F880304DE07B68B3F5007F2D
:1048E00041D1284B1B6803F4C063B3F5806F31D10D
:1048F000244BD3F88030234A43F48073C2F88030CD
:10490000204B1B6823F4C0631E4A43F400731360FA
:104910001D4B1B68322202FB03F31C4AA2FB03233C
:104920009B0C0133FB6002E0FB68013BFB60154B15
:104930005B6903F48063B3F5806F02D1FB68002BE1
:10494000F2D1104B5B6903F48063B3F5806F12D131
:10495000032311E00B4BD3F880300A4A43F48073F1
:10496000C2F8803007E0074B1B6823F4C063054A98
:1049700043F480631360002318461437BD465DF886
:10498000047B7047007000405000002083DE1B4312
:1049900080B400AF054B9B68044A43F480439360A6
:1049A00000BFBD465DF8047B704700BF007000404B
:1049B00080B586B000AF78600023FB740023BB7421
:1049C0007B681B6803F40023002B00F09880002311
:1049D0007B74434B9B6D03F08053002B0DD1404BF8
:1049E0009B6D3F4A43F0805393653D4B9B6D03F0B5
:1049F0008053BB60BB6801237B743A4B1B68394A08
:104A000043F48073136004F045FFF86009E004F09C
:104A100041FF0246FB68D31A022B02D90323FB7421
:104A200005E0304B1B6803F48073002BEFD0FB7C58
:104A3000002B59D12A4BD3F8903003F440737B619B
:104A40007B69002B1ED07B681B6D7A699A4219D056
:104A5000234BD3F8903023F440737B61204BD3F881
:104A600090301F4A43F48033C2F890301C4BD3F887
:104A700090301B4A23F48033C2F89030184A7B6987
:104A8000C2F890307B6903F00103002B16D004F0CC
:104A900001FFF8600BE004F0FDFE0246FB68D31A4C
:104AA00041F28832934202D90323FB7406E00C4B97
:104AB000D3F8903003F00203002BECD0FB7C002BEA
:104AC0000BD1074BD3F8903023F440727B681B6DF9
:104AD00003491343C1F8903008E0FB7CBB7405E048
:104AE0000010024000700040FB7CBB747B7C012BFB
:104AF00005D1A74B9B6DA64A23F0805393657B6835
:104B00001B6803F00103002B0AD0A14BD3F88830B7
:104B100023F003027B685B689D491343C1F888302A
:104B20007B681B6803F00203002B0AD0984BD3F874
:104B3000883023F00C027B689B6895491343C1F8C9
:104B400088307B681B6803F00403002B0AD0904B6D
:104B5000D3F8883023F030027B68DB688C4913433C
:104B6000C1F888307B681B6803F00803002B0AD06B
:104B7000874BD3F8883023F0C0027B681B698449D7
:104B80001343C1F888307B681B6803F01003002BC7
:104B90000AD07F4BD3F8883023F440727B685B697E
:104BA0007B491343C1F888307B681B6803F02003FE
:104BB000002B0AD0764BD3F8883023F440627B6810
:104BC0009B6973491343C1F888307B681B6803F005
:104BD0004003002B0AD06E4BD3F8883023F44052A8
:104BE0007B68DB696A491343C1F888307B681B68BE
:104BF00003F08003002B0AD0654BD3F8883023F4F0
:104C000040427B681B6A62491343C1F888307B6865
:104C10001B6803F48073002B0AD05D4BD3F88830F7
:104C200023F440327B685B6A59491343C1F88830EA
:104C30007B681B6803F40033002B0AD0544BD3F875
:104C40009C3023F003027B689B6A51491343C1F8EF
:104C50009C307B681B6803F40073002B0AD04C4B1C
:104C6000D3F8883023F440227B68DB6A4849134339
:104C7000C1F888307B681B6803F48063002B15D073
:104C8000434BD3F8883023F440127B681B6B4049B8
:104C90001343C1F888307B681B6BB3F5801F05D1C7
:104CA0003B4BDB683A4A43F48013D3607B681B6854
:104CB00003F40063002B15D0354BD3F8883023F470
:104CC00040027B685B6B32491343C1F888307B68D4
:104CD0005B6BB3F5800F05D12D4BDB682C4A43F499
:104CE0008013D3607B681B6803F48053002B15D0BE
:104CF000274BD3F8883023F040727B689B6B2449A4
:104D00001343C1F888307B689B6BB3F1807F05D17A
:104D10001F4BDB681E4A43F48013D3607B681B681B
:104D200003F40053002B15D0194BD3F8883023F02F
:104D300040627B68DB6B16491343C1F888307B689F
:104D4000DB6BB3F1006F05D1114BDB68104A43F404
:104D50008013D3607B681B6803F48043002B19D059
:104D60000B4BD3F8883023F040627B681B6C0849FA
:104D70001343C1F888307B681B6CB3F1006F09D115
:104D8000034BDB68024A43F48013D36002E000BFA8
:104D9000001002407B681B6803F40043002B15D011
:104DA000294BD3F8883023F040527B685B6C26494E
:104DB0001343C1F888307B685B6CB3F1805F05D129
:104DC000214BDB68204A43F48033D3607B681B6847
:104DD00003F48033002B15D01B4BD3F8883023F01D
:104DE00040427B689B6C18491343C1F888307B684C
:104DF0009B6CB3F1804F05D1134BDB68124A43F42F
:104E00008033D3607B681B6803F48023002B15D0AC
:104E10000D4BD3F89C3023F440127B68DB6C0A49BD
:104E20001343C1F89C307B68DB6CB3F5001F05D1E0
:104E3000054BDB68044A43F48013D360BB7C1846FF
:104E40001837BD4680BD00BF0010024080B588B055
:104E500000AF78607B68002B01D1012306E37B68FB
:104E60001B6803F00103002B75D0974B9B6803F080
:104E70000C03BB61944BDB6803F003037B61BB69EC
:104E80000C2B02D17B69032B02D0BB69082B0BD101
:104E90008D4B1B6803F40033002B5BD07B685B6891
:104EA000002B57D10123E1E27B685B68B3F5803FBB
:104EB00006D1854B1B68844A43F4803313601DE0A0
:104EC0007B685B68B3F5A02F0CD17F4B1B687E4AD3
:104ED00043F4802313607C4B1B687B4A43F480338C
:104EE00013600BE0784B1B68774A23F48033136020
:104EF000754B1B68744A23F4802313607B685B68DE
:104F0000002B13D004F0C6FC386108E004F0C2FCAA
:104F100002463B69D31A642B01D90323A6E26A4BEC
:104F20001B6803F40033002BF0D014E004F0B2FC53
:104F3000386108E004F0AEFC02463B69D31A642BEA
:104F400001D9032392E2604B1B6803F40033002B6A
:104F5000F0D100E000BF7B681B6803F00203002B68
:104F600075D0594B9B6803F00C03BB61564BDB6853
:104F700003F003037B61BB690C2B02D17B69022B1D
:104F800002D0BB69042B1FD14F4B1B6803F4806315
:104F9000002B05D07B68DB68002B01D1012365E283
:104FA000494B5B6823F0FE427B681B691B06464940
:104FB00013434B60454B1B68184604F01FFC034627
:104FC000002B43D0012351E27B68DB68002B23D008
:104FD0003D4B1B683C4A43F48073136004F05AFC59
:104FE000386108E004F056FC02463B69D31A022BF4
:104FF00001D903233AE2344B1B6803F48063002B8E
:10500000F0D0314B5B6823F0FE427B681B691B06C6
:105010002D4913434B601AE02B4B1B682A4A23F49B
:105020008073136004F036FC386108E004F032FC51
:1050300002463B69D31A022B01D9032316E2224B05
:105040001B6803F48063002BF0D100E000BF7B6895
:105050001B6803F00803002B41D07B685B69002BC1
:105060001CD0194BD3F89430174A43F00103C2F80F
:10507000943004F00FFC386108E004F00BFC0246A9
:105080003B69D31A022B01D90323EFE10E4BD3F86E
:10509000943003F00203002BEFD020E00A4BD3F84A
:1050A0009430094A23F00103C2F8943004F0F2FB73
:1050B00038610DE004F0EEFB02463B69D31A022B87
:1050C00006D90323D2E100BF0010024054000020A3
:1050D0008C4BD3F8943003F00203002BEAD17B68A9
:1050E0001B6803F00403002B00F0A6800023FB776D
:1050F000844B9B6D03F08053002B01D1012300E012
:105100000023002B0DD07F4B9B6D7E4A43F08053D4
:1051100093657C4B9B6D03F08053FB60FB68012320
:10512000FB77794B1B6803F48073002B18D1764B07
:105130001B68754A43F48073136004F0ABFB38615D
:1051400008E004F0A7FB02463B69D31A022B01D901
:1051500003238BE16C4B1B6803F48073002BF0D0AE
:105160007B689B68012B08D1664BD3F89030654A69
:1051700043F00103C2F8903024E07B689B68052B64
:1051800010D1604BD3F890305E4A43F00403C2F86C
:1051900090305C4BD3F890305A4A43F00103C2F888
:1051A00090300FE0574BD3F89030564A23F001036C
:1051B000C2F89030534BD3F89030524A23F0040396
:1051C000C2F890307B689B68002B16D004F062FB1D
:1051D00038610AE004F05EFB02463B69D31A41F2F3
:1051E0008832934201D9032340E1464BD3F89030F3
:1051F00003F00203002BEDD015E004F04BFB386107
:105200000AE004F047FB02463B69D31A41F28832B8
:10521000934201D9032329E13A4BD3F8903003F0AC
:105220000203002BEDD1FB7F012B05D1354B9B6D8C
:10523000344A23F0805393657B681B6803F0200396
:10524000002B3CD07B689B69002B1CD02D4BD3F8E6
:1052500098302C4A43F00103C2F8983004F01AFB4E
:10526000386108E004F016FB02463B69D31A022BB2
:1052700001D90323FAE0234BD3F8983003F002035B
:10528000002BEFD01BE01F4BD3F898301D4A23F0C2
:105290000103C2F8983004F0FDFA386108E004F028
:1052A000F9FA02463B69D31A022B01D90323DDE048
:1052B000144BD3F8983003F00203002BEFD17B6836
:1052C000DB69002B00F0D1800E4B9B6803F00C03D0
:1052D0000C2B00F08B807B68DB69022B5ED1094BC5
:1052E0001B68084A23F08073136004F0D3FA386116
:1052F0000CE004F0CFFA02463B69D31A022B05D921
:105300000323B3E00010024000700040594B1B68BB
:1053100003F00073002BECD1564BDA68564B134068
:105320007A68116A7A68526A013A120111437A68FE
:10533000926A120211437A68126B5208013A5205BE
:1053400011437A68526B5208013A520611437A6847
:10535000D26AD2060A4347491343CB60454B1B68C8
:10536000444A43F080731360424BDB68414A43F088
:105370008073D36004F08EFA386108E004F08AFA92
:1053800002463B69D31A022B01D903236EE0394B45
:105390001B6803F00073002BF0D066E0354B1B68F0
:1053A000344A23F080731360324BDB68314A23F0B8
:1053B0000303D3602F4BDB682E4A23F0887323F45A
:1053C0008033D36004F066FA386108E004F062FAD2
:1053D00002463B69D31A022B01D9032346E0254B31
:1053E0001B6803F00073002BF0D13EE07B68DB69A3
:1053F000012B01D1012339E01E4BDB687B617B6906
:1054000003F003027B681B6A9A422CD17B6903F08C
:10541000F0027B685B6A013B1B019A4223D17B69E6
:1054200003F4FE427B689B6A1B029A421BD17B6994
:1054300003F078427B68DB6ADB069A4213D17B6912
:1054400003F4C0027B681B6B5B08013B5B059A425F
:1054500009D17B6903F0C0627B685B6B5B08013B31
:105460005B069A4201D0012300E000231846203752
:10547000BD4680BD001002400C809F0180B586B003
:1054800000AF7860396000237B617B68002B01D11D
:1054900001231EE1914B1B6803F00F033A689A4207
:1054A00010D98E4B1B6823F00F028C493B681343C5
:1054B0000B608A4B1B6803F00F033A689A4201D0D5
:1054C000012306E17B681B6803F00103002B73D006
:1054D0007B685B68032B29D1814B1B6803F0007349
:1054E000002B01D10123F4E000F09EF938613B6903
:1054F0007C4A93423FD97A4B9B6803F0F003002B20
:1055000009D07B681B6803F00203002B33D07B6853
:105510009B68002B2FD1724B9B6823F0F003704ADD
:1055200043F08003936080237B6124E07B685B68A9
:10553000022B07D16A4B1B6803F40033002B09D1FF
:105540000123C6E0664B1B6803F48063002B01D186
:105550000123BEE000F0CEF838613B69614A934216
:1055600009D95F4B9B6823F0F0035D4A43F0800349
:10557000936080237B615A4B9B6823F003027B6816
:105580005B68574913438B6004F084F9F8600AE0C4
:1055900004F080F90246FB68D31A41F28832934244
:1055A00001D9032395E04E4B9B6803F00C027B6806
:1055B0005B689B009A42EBD17B681B6803F0020397
:1055C000002B23D07B681B6803F00403002B05D05D
:1055D000434B9B68424A43F4E06393607B681B68DB
:1055E00003F00803002B07D03D4B9B6823F47C534A
:1055F0003B4A43F4E0639360394B9B6823F0F0022D
:105600007B689B68364913438B6008E07B69802B7D
:1056100005D1334B9B68324A23F0F00393602F4B44
:105620001B6803F00F033A689A421DD22B4B1B688C
:1056300023F00F0229493B6813430B6004F02AF959
:10564000F8600AE004F026F90246FB68D31A41F23A
:105650008832934201D903233BE0204B1B6803F0BF
:105660000F033A689A42EDD17B681B6803F004038C
:10567000002B08D01A4B9B6823F4E0627B68DB6840
:10568000174913438B607B681B6803F00803002BEA
:1056900009D0134B9B6823F460527B681B69DB00C5
:1056A0000F4913438B6000F025F802460C4B9B68B2
:1056B0001B0903F00F030C49CB5C03F01F0322FA14
:1056C00003F30A4A13600A4B1B68184604F096F865
:1056D000034618461837BD4680BD00BF0020024073
:1056E0000010024000B4C404F4A5000850000020DB
:1056F0005400002080B487B000AF2C4B9B6803F0AF
:105700000C03042B02D12A4B3B6147E0274B9B68DB
:1057100003F00C03082B02D1264B3B613EE0234BE8
:105720009B6803F00C030C2B36D1204BDB6803F095
:105730000303FB601D4BDB681B0903F00F03013300
:10574000BB60FB68032B0CD11A4ABB68B2FBF3F3B6
:10575000164AD268120A02F07F0202FB03F37B6151
:105760000CE0134ABB68B2FBF3F3104AD268120A8A
:1057700002F07F0202FB03F37B6100BF0B4BDB688F
:105780005B0E03F0030301335B007B607A697B6887
:10579000B2FBF3F33B6101E000233B613B69184638
:1057A0001C37BD465DF8047B704700BF0010024007
:1057B0000024F400002D310180B400AF034B1B68BE
:1057C0001846BD465DF8047B704700BF50000020BE
:1057D00080B500AFFFF7F0FF0246064B9B681B0A3F
:1057E00003F007030449CB5C03F01F0322FA03F321
:1057F000184680BD0010024004A6000880B500AF26
:10580000FFF7DAFF0246064B9B68DB0A03F007034B
:105810000449CB5C03F01F0322FA03F3184680BD52
:105820000010024004A6000880B487B000AF1E4BF1
:10583000DB6803F003033B611B4BDB681B0903F0D0
:105840000F030133FB603B69032B0CD1174AFB6844
:10585000B2FBF3F3144AD268120A02F07F0202FB91
:1058600003F37B610CE0124AFB68B2FBF3F30E4AD0
:10587000D268120A02F07F0202FB03F37B6100BFD1
:10588000094BDB685B0E03F0030301335B00BB6075
:105890007A69BB68B2FBF3F37B607B6818461C3700
:1058A000BD465DF8047B704700100240002D3101B9
:1058B0000024F40080B584B000AF78607B68002BD2
:1058C00001D101239DE07B685B6A002B08D17B68D6
:1058D0005B68B3F5827F09D07B680022DA6105E05E
:1058E0007B6800221A617B6800225A617B68002273
:1058F0009A627B6893F85D30DBB2002B06D17B683F
:10590000002283F85C207868FCF768FC7B68022240
:1059100083F85D207B681B681A687B681B6822F02F
:1059200040021A607B68DB68B3F5E06F02D90023A0
:10593000FB6002E04FF48053FB607B68DB68B3F5EB
:10594000706F07D07B68DB68B3F5E06F02D07B68CF
:1059500000229A627B685B6803F482727B689B68B2
:1059600003F404431A437B681B6903F002031A43E0
:105970007B685B6903F001031A437B689B6903F44E
:1059800000731A437B68DB6903F038031A437B68B2
:105990001B6A03F0800342EA03017B689B6A03F4FD
:1059A00000527B681B680A431A607B689B691B0C6A
:1059B00003F004027B685B6A03F010031A437B6800
:1059C0005B6B03F008031A437B68DB6803F47063C6
:1059D00042EA0301FB6803F480527B681B680A43B8
:1059E0005A607B681B68DA697B681B6822F4006276
:1059F000DA617B6800221A667B68012283F85D20E9
:105A0000002318461037BD4680BD000080B485B025
:105A100000AF786039607B6893F83C30012B01D18E
:105A2000022374E07B68012283F83C207B68022219
:105A300083F83D207B681B685B68FB607B681B68A4
:105A40009B68BB607B681B68344A934209D07B68C3
:105A50001B68334A934204D07B681B68314A9342E7
:105A600008D1FB6823F47003FB603B685B68FA684D
:105A70001343FB60FB6823F0007323F07003FB60AB
:105A80003B681B68FA681343FB607B681B68FA6815
:105A90005A607B681B68214A934222D07B681B684E
:105AA000B3F1804F1DD07B681B681F4A934218D00A
:105AB0007B681B681D4A934213D07B681B681C4A95
:105AC00093420ED07B681B68154A934209D07B68CD
:105AD0001B68184A934204D07B681B68114A9342A2
